{
  "_format": "hh-sol-artifact-1",
  "contractName": "MyToken",
  "sourceName": "contracts/MyToken.sol",
  "abi": [
    {
      "inputs": [
        {
          "internalType": "uint256",
          "name": "initialSupply",
          "type": "uint256"
        }
      ],
      "stateMutability": "nonpayable",
      "type": "constructor"
    },
    {
      "inputs": [
        {
          "internalType": "address",
          "name": "account",
          "type": "address"
        }
      ],
      "name": "balanceOf",
      "outputs": [
        {
          "internalType": "uint256",
          "name": "",
          "type": "uint256"
        }
      ],
      "stateMutability": "view",
      "type": "function"
    },
    {
      "inputs": [
        {
          "internalType": "address",
          "name": "recipient",
          "type": "address"
        },
        {
          "internalType": "uint256",
          "name": "amount",
          "type": "uint256"
        }
      ],
      "name": "mint",
      "outputs": [],
      "stateMutability": "nonpayable",
      "type": "function"
    },
    {
      "inputs": [],
      "name": "totalSupply",
      "outputs": [
        {
          "internalType": "uint256",
          "name": "",
          "type": "uint256"
        }
      ],
      "stateMutability": "view",
      "type": "function"
    },
    {
      "inputs": [
        {
          "internalType": "address",
          "name": "recipient",
          "type": "address"
        },
        {
          "internalType": "uint256",
          "name": "amount",
          "type": "uint256"
        }
      ],
      "name": "transfer",
      "outputs": [
        {
          "internalType": "bool",
          "name": "",
          "type": "bool"
        }
      ],
      "stateMutability": "nonpayable",
      "type": "function"
    }
  ],
  "bytecode": "0x608060405234801561001057600080fd5b506040516109bc3803806109bc833981810160405281019061003291906101c6565b33600260006101000a81548173ffffffffffffffffffffffffffffffffffffffff021916908373ffffffffffffffffffffffffffffffffffffffff160217905550610083338261008960201b60201c565b506102f9565b600260009054906101000a900473ffffffffffffffffffffffffffffffffffffffff1673ffffffffffffffffffffffffffffffffffffffff163373ffffffffffffffffffffffffffffffffffffffff1614610119576040517f08c379a000000000000000000000000000000000000000000000000000000000815260040161011090610276565b60405180910390fd5b806000808473ffffffffffffffffffffffffffffffffffffffff1673ffffffffffffffffffffffffffffffffffffffff168152602001908152602001600020600082825461016791906102c5565b92505081905550806001600082825461018091906102c5565b925050819055505050565b600080fd5b6000819050919050565b6101a381610190565b81146101ae57600080fd5b50565b6000815190506101c08161019a565b92915050565b6000602082840312156101dc576101db61018b565b5b60006101ea848285016101b1565b91505092915050565b600082825260208201905092915050565b7f4f6e6c7920746865206f776e65722063616e20706572666f726d20746869732060008201527f616374696f6e0000000000000000000000000000000000000000000000000000602082015250565b60006102606026836101f3565b915061026b82610204565b604082019050919050565b6000602082019050818103600083015261028f81610253565b9050919050565b7f4e487b7100000000000000000000000000000000000000000000000000000000600052601160045260246000fd5b60006102d082610190565b91506102db83610190565b92508282019050808211156102f3576102f2610296565b5b92915050565b6106b4806103086000396000f3fe608060405234801561001057600080fd5b506004361061004c5760003560e01c806318160ddd1461005157806340c10f191461006f57806370a082311461008b578063a9059cbb146100bb575b600080fd5b6100596100eb565b604051610066919061038b565b60405180910390f35b61008960048036038101906100849190610435565b6100f1565b005b6100a560048036038101906100a09190610475565b6101f3565b6040516100b2919061038b565b60405180910390f35b6100d560048036038101906100d09190610435565b61023b565b6040516100e291906104bd565b60405180910390f35b60015481565b600260009054906101000a900473ffffffffffffffffffffffffffffffffffffffff1673ffffffffffffffffffffffffffffffffffffffff163373ffffffffffffffffffffffffffffffffffffffff1614610181576040517f08c379a00000000000000000000000000000000000000000000000000000000081526004016101789061055b565b60405180910390fd5b806000808473ffffffffffffffffffffffffffffffffffffffff1673ffffffffffffffffffffffffffffffffffffffff16815260200190815260200160002060008282546101cf91906105aa565b9250508190555080600160008282546101e891906105aa565b925050819055505050565b60008060008373ffffffffffffffffffffffffffffffffffffffff1673ffffffffffffffffffffffffffffffffffffffff168152602001908152602001600020549050919050565b60008060003373ffffffffffffffffffffffffffffffffffffffff1673ffffffffffffffffffffffffffffffffffffffff168152602001908152602001600020548211156102be576040517f08c379a00000000000000000000000000000000000000000000000000000000081526004016102b59061062a565b60405180910390fd5b816000803373ffffffffffffffffffffffffffffffffffffffff1673ffffffffffffffffffffffffffffffffffffffff168152602001908152602001600020600082825461030c919061064a565b92505081905550816000808573ffffffffffffffffffffffffffffffffffffffff1673ffffffffffffffffffffffffffffffffffffffff168152602001908152602001600020600082825461036191906105aa565b925050819055506001905092915050565b6000819050919050565b61038581610372565b82525050565b60006020820190506103a0600083018461037c565b92915050565b600080fd5b600073ffffffffffffffffffffffffffffffffffffffff82169050919050565b60006103d6826103ab565b9050919050565b6103e6816103cb565b81146103f157600080fd5b50565b600081359050610403816103dd565b92915050565b61041281610372565b811461041d57600080fd5b50565b60008135905061042f81610409565b92915050565b6000806040838503121561044c5761044b6103a6565b5b600061045a858286016103f4565b925050602061046b85828601610420565b9150509250929050565b60006020828403121561048b5761048a6103a6565b5b6000610499848285016103f4565b91505092915050565b60008115159050919050565b6104b7816104a2565b82525050565b60006020820190506104d260008301846104ae565b92915050565b600082825260208201905092915050565b7f4f6e6c7920746865206f776e65722063616e20706572666f726d20746869732060008201527f616374696f6e0000000000000000000000000000000000000000000000000000602082015250565b60006105456026836104d8565b9150610550826104e9565b604082019050919050565b6000602082019050818103600083015261057481610538565b9050919050565b7f4e487b7100000000000000000000000000000000000000000000000000000000600052601160045260246000fd5b60006105b582610372565b91506105c083610372565b92508282019050808211156105d8576105d761057b565b5b92915050565b7f4e6f7420656e6f7567682062616c616e63652e00000000000000000000000000600082015250565b60006106146013836104d8565b915061061f826105de565b602082019050919050565b6000602082019050818103600083015261064381610607565b9050919050565b600061065582610372565b915061066083610372565b92508282039050818111156106785761067761057b565b5b9291505056fea2646970667358221220f79ac40af4779f8580dffe25f2cec9ec0dbd636cccfbba235170bbd1c4e9902664736f6c63430008110033",
  "linkReferences": {},
  "deployedLinkReferences": {}
}